{
  "contractName": "SimpleAdd",
  "abi": [
    {
      "constant": true,
      "inputs": [],
      "name": "getNumber",
      "outputs": [
        {
          "name": "",
          "type": "uint256"
        }
      ],
      "payable": false,
      "stateMutability": "view",
      "type": "function"
    },
    {
      "constant": false,
      "inputs": [],
      "name": "increase",
      "outputs": [],
      "payable": false,
      "stateMutability": "nonpayable",
      "type": "function"
    }
  ],
  "bytecode": "0x608060405260008055348015601357600080fd5b5060a3806100226000396000f3fe6080604052348015600f57600080fd5b506004361060325760003560e01c8063e8927fbc146037578063f2c9ecd814603f575b600080fd5b603d605b565b005b6045606e565b6040518082815260200191505060405180910390f35b6000808154809291906001019190505550565b6000805490509056fea165627a7a72305820a9ca5e38e9c6488a9eaf8dcecef16e37e7739b86d3ee3f490cca86fa42bd44790029",
  "source": "pragma solidity ^0.5.8;  \n\n\n/* 合約本體 */\ncontract SimpleAdd {\n\n    /* 變數宣告 */\n    uint number = 0;\n\n    // ... 更多變數\n\n\n    /* 函數定義 */\n    function getNumber() public view returns (uint) {\n        return number;\n    }\n\n    // ... 更多函數 \n    function increase() public {\n        number++;\n    }\n\n    \n}",
  "sourcePath": "/Users/jerrylee/Desktop/test/contracts/SimpleAdd.sol",
  "compiler": {
    "name": "solc",
    "version": "0.5.8+commit.23d335f2.Emscripten.clang"
  },
  "schemaVersion": "3.0.16",
  "updatedAt": "2019-10-10T13:26:27.787Z",
  "devdoc": {
    "methods": {}
  },
  "userdoc": {
    "methods": {}
  }
}